:020000040800F2
:10000000A45E0020B90E0008150F0008150F0008A7
:10001000150F0008150F0008150F0008000000005C
:10002000000000000000000000000000150F0008A4
:10003000150F000800000000150F0008150F00083C
:10004000150F0008150F0008150F0008150F000800
:10005000150F0008150F0008150F0008150F0008F0
:10006000150F0008150F0008150F0008150F0008E0
:10007000150F0008150F0008150F0008150F0008D0
:10008000150F0008150F0008150F0008150F0008C0
:10009000150F0008150F0008150F0008150F0008B0
:1000A000150F0008150F0008150F0008150F0008A0
:1000B000D9060008150F0008150F0008150F0008D5
:1000C000150F0008150F0008150F0008150F000880
:1000D000150F000815080008150F0008E9110008A1
:1000E000150F0008150F0008150F0008000000008C
:1000F0000000000000000000000000000000000000
:100100000000000000000000150F0008150F000897
:10011000150F0008150F0008150F0008150F00082F
:10012000150F0008150F0008150F0008150F00081F
:10013000150F0008150F0008150F0008150F00080F
:10014000150F0008150F0008150F0008150F0008FF
:100150005FF808F182B04FF48053C4F202031A68CA
:1001600042F001021A6059684FF00002CFF2FF021C
:100170000A405A601A6822F0847222F480321A60AF
:100180001A6822F480221A605A6822F4FE025A6029
:100190001A6822F0A0521A604FF47F029A604FF062
:1001A0000002DA62009201921A6842F480321A6008
:1001B0004FF48052C4F20202136803F40033019337
:1001C000009B03F101030093019B1BB9009BB3F556
:1001D000A06FF1D14FF48053C4F202031B6813F4F3
:1001E000003F14BF012300230193019B012B61D128
:1001F0004FF40053C4F202031A6842F010021A606E
:100200001A6822F003021A601A6842F002021A60A9
:100210004FF48053C4F202035A685A605A685A6015
:100220005A6842F480625A60D96A4FF47042CFF63D
:10023000FE720A40DA62DA6A42F4823242F41172E1
:10024000DA621A6842F080621A604FF48052C4F297
:100250000202136813F0006FFBD04FF48053C4F216
:1002600002035A6822F47C125A605A6842F4E81277
:100270005A601A6842F080721A604FF48052C4F2D9
:100280000202136813F0007FFBD04FF48053C4F2D6
:1002900002035A6822F003025A605A6842F00202CE
:1002A0005A604FF48052C4F20202536803F00C0308
:1002B000082BFAD14FF46D43CEF200034FF00062E9
:1002C0009A6002B0704700BF2DE9F003CB7803F0CD
:1002D0000F0513F0100F1CBF8B781D430B782BB349
:1002E000D0F800C04FF000034FF001064FF00F08A8
:1002F00006FA03F20C881440944211D14FEA8307A6
:1003000008FA07F92CEA090C05FA07F74CEA070C7A
:10031000CF78282F01D1446102E0482F08BF026145
:1003200003F10103082BE3D1C0F800C00B88FF2BB9
:1003300027D9D0F804C04FF000034FF001064FF06A
:100340000F0803F1080206FA02F20C8814409442E6
:1003500011D14FEA830708FA07F92CEA090C05FACC
:1003600007F74CEA070CCF78282F08BF4461CC78F8
:10037000482C08BF026103F10103082BE1D1C0F84A
:1003800004C0BDE8F00370470AB1016170474161E4
:10039000704700BF30B400284FF00003C4F20103DF
:1003A000B4BFDB695B6884B200F44012B2F5401F51
:1003B0000AD123F070634FF00002C4F201025568C5
:1003C00025F07065556017E010F4801F0AD0C0F367
:1003D00003424FF0030505FA02F223EA020343F059
:1003E000706309E04FEA50524FEA021204FA02F237
:1003F00023EA020343F0706331B14FEA50524FEAEF
:10040000021204FA02F4234300284FF00002C4F25F
:100410000102B4BFD361536030BC704770B541F680
:100420003C04C2F20004164D256005F58556666051
:1004300005F58073A360E5602561656101F0C0F991
:10044000A561E56105F5BC5303F13303236205F5AE
:10045000845303F130036362A562A3F131034FF0CB
:10046000010232704FF0030283F8222083F8232028
:1004700083F824204FF08C0283F8252070BD00BF44
:100480004900002010B582B04FF0FF04ADF80440E1
:100490004FF003038DF806304FF010038DF807304E
:1004A0004FF40060C4F2010001A9FFF70DFFADF8A1
:1004B00004404FF44060C4F2010001A9FFF704FFBB
:1004C000ADF804404FF48054C4F20104204601A961
:1004D000FFF7FAFE4FF40063ADF80430204601A99F
:1004E000FFF7F2FE02B010BD00B583B04FF47043C9
:1004F000ADF804304FF003038DF806304FF02803B9
:100500008DF807304FF44060C4F2010001A9FFF7F5
:10051000DBFE03B000BD00BF4FF40063C4F2010373
:10052000DA6822F0FF02DA60DA68C1B20A43DA6000
:100530004FF44063C4F20103DA6822F0FF02DA608C
:10054000DA68C0F307210A43DA604FF48053C4F23B
:100550000103DA6822F0FF02DA60DA68C0F30740CC
:100560001043D860704700BF30B440F24803C2F275
:100570000003D3F80530184261D040F24803C2F2BC
:100580000003D3F8012010420FD040F23004C2F231
:10059000000440F24803C2F2000303EB41056D7A08
:1005A000655422EA0002C3F8012040F23003C2F28F
:1005B00000035B5C9BB140F23002C2F2000203F127
:1005C000FF33535440F21803C2F2000340F24802D2
:1005D000C2F2000202EB4102927A5A5439E040F230
:1005E0001803C2F200035B5CFF2B0ED140F218032C
:1005F000C2F2000340F24802C2F2000202EB4102E2
:10060000927A5A544FF0000023E04BB140F21802A6
:10061000C2F2000203F1FF3353544FF0000018E020
:1006200040F23003C2F2000340F24802C2F200027C
:1006300002EB4102527A5A544FF0000009E040F2B6
:100640004803C2F20003D3F801300340002B08BF77
:10065000002030BC704700BF70B54FF00004254645
:100660004FF0010606FA04F0E1B2FFF77DFF054303
:1006700004F10104182CF5D1284670BD30B583B0C3
:100680004FF48053C4F20203DA6942F00102DA61E6
:100690004FF0804441F63F7323854FF47A73A3856E
:1006A0004FF0000323824FF00105A5814FF01C039A
:1006B0008DF804304FF003038DF805308DF80630C7
:1006C0008DF8075001A801F039F8A58223889BB264
:1006D0002B43238003B030BD08B54FF44063C4F210
:1006E0000103996840F24803C2F2000303F5845203
:1006F0006FEA0101C1F3033101F1780182F826109C
:1007000003F5BC5393F83430012B0FD04FF00002A7
:100710004FF0010340F24800C2F20000111801F549
:10072000BC5191F83710012914D101E04FF00003BA
:1007300040F24802C2F2000203EB4303D31803F570
:10074000BC5303F13003B3F8053002F58452A2F82C
:10075000313005E003F1010302F10302082BDDD182
:10076000064800F0D9FEFFF777FFFFF7D5FE4FF000
:1007700000024FF080431A8208BD00BFF91000202C
:1007800041F67C03C2F200031B681A8802F10102E1
:100790001A80704700B583B04FF03C004FF0010164
:1007A00000F066FB4FF00100014600F061FB4FF4E2
:1007B0000070C0F230004FF00101FFF7EBFD4FF485
:1007C000964000F08DFC41F63C01C2F2000140F27F
:1007D0004802C2F2000241F63A03C2F200034FF4AB
:1007E0001650009002F5845000F1260000F01CFA2B
:1007F000FFF714FEFFF746FEFFF776FEFFF73EFF1A
:10080000FFF7BEFF03B000BD08B5FFF7C3FF62B638
:10081000FEE700BF70B54FF46053C4F201031B88BC
:1008200013F0200F00F088814FF46050C4F20100F3
:1008300000F022FC044641F6B203C2F200031B782A
:10084000012B4BD01BB1022B40F07681FDE041F62D
:100850009C03C2F200031B681B7843F48073984228
:1008600040F0E08141F68403C2F200031B684FF0C0
:1008700070021A704FF40060C4F201004FF48071EE
:100880004FF00102FFF780FD41F6B203C2F2000310
:100890004FF001021A7041F69403C2F200034FF0C8
:1008A00000061E6041F68803C2F200034FF0060105
:1008B00019604FF46055C4F20105284640F22771D3
:1008C00000F0B6FB44F4807189B2284600F0CEFBFC
:1008D00041F68003C2F200031E7070BD41F694031E
:1008E000C2F200031968C4B241F6A002C2F20002CB
:1008F000545441F68002C2F2000210782418147099
:1009000001F101021A60052A40F08C814FF4006069
:10091000C4F201004FF480714FF00102FFF734FD83
:1009200041F69802C2F2000241F6A003C2F20003AF
:10093000D878997801EB0021118041F6B002C2F21B
:1009400000025878197801EB0021118041F68C02E1
:10095000C2F200021268197901F00F01117041F61C
:100960008002C2F2000215781B7903F0F003502BCD
:1009700035D113464FF000021A7041F6AC03C2F2B3
:10098000000341F68C02C2F200021268107841F6B0
:100990009002C2F20002116841F6B002C2F20002F7
:1009A000128851F820108A181A6041F69403C2F296
:1009B000000341F69802C2F2000212881A6041F662
:1009C000B203C2F200034FF003021A7041F684032F
:1009D000C2F200031B684FF050021A7025E0A02BF2
:1009E00013D141F6B203C2F200034FF002021A70B3
:1009F00041F69403C2F200034FF000021A6041F680
:100A00008003C2F200031A700FE041F6B203C2F293
:100A100000034FF000021A704FF40060C4F20100AE
:100A20004FF48071FFF7B0FC70BD4FF46054C4F216
:100A30000104204640F227714FF0010200F0F8FA5D
:100A40002046294600F012FB70BDC4B241F6800377
:100A5000C2F2000319786118C9B2197041F6940303
:100A6000C2F200031A6841F69803C2F200031B8821
:100A7000934244D1372908D141F68403C2F20003DE
:100A80001B684FF0A0021A700EE04FF0640303F1F0
:100A9000FF339BB2002BFAD141F68403C2F200036C
:100AA0001B684FF050021A704FF40060C4F201004E
:100AB0004FF480714FF00102FFF766FC41F68003AE
:100AC000C2F200031E7841F69403C2F200034FF015
:100AD00000051D604FF46054C4F20104204640F24A
:100AE00027714FF0010200F0A3FA2046314600F0D2
:100AF000BDFA41F6B203C2F200031D701CE041F6DC
:100B00008C03C2F200031B68187841F69003C2F20E
:100B10000003196841F6B003C2F200031B8851F8C4
:100B200020108A18D45441F69403C2F200031A68C4
:100B300002F101021A6070BD4FF46053C4F2010368
:100B40001B8813F0800F6DD041F69403C2F20003AE
:100B50001B68002B1FDD4FF46050C4F2010041F60A
:100B6000AC04C2F200042368197800F07FFA41F661
:100B70008003C2F20003226812F8010B19784118B1
:100B80001970226041F69403C2F200031A6802F160
:100B9000FF321A6070BD4FF46053C4F201031B882A
:100BA00013F0400F3ED04FF46054C4F201042046CD
:100BB00040F227714FF0000200F03AFA4FF00003C4
:100BC000238041F6B203C2F200031B78022B0AD83D
:100BD0004FF40060C4F201004FF480714FF0000246
:100BE000FFF7D2FB70BD41F6B203C2F200034FF033
:100BF00000021A7041F69403C2F200031A604FF427
:100C00006054C4F20104204640F227714FF0010203
:100C100000F00EFA41F68003C2F200031978204674
:100C200000F024FA70BD00BF2DE9F04387B00646FE
:100C30000C4615461F464FF480404FF0010100F06E
:100C400017F941F68403C2F200031D6041F69003D8
:100C5000C2F200031C6041F69C03C2F200031E6056
:100C600041F68C03C2F200031F604FF025038DF89C
:100C700000304FF005038DF801308DF802304FF051
:100C800001078DF80370684600F058FD4FF40073BB
:100C9000ADF804304FF018038DF807304FF0030320
:100CA0008DF806304FF40064C4F20104204601A917
:100CB000FFF70AFB4FF48078ADF804804FF0100383
:100CC0008DF80730204601A9FFF7FEFA4FF4806344
:100CD000ADF804304FF004038DF8073020460DEBDB
:100CE0000301FFF7F1FABDF8383002934FF4805357
:100CF000ADF80C304FF00006B146ADF80E60ADF81F
:100D00001060ADF814604FF00C03ADF812304FF4E2
:100D10006055C4F20105284602A900F0FDF82846F6
:100D2000394600F075F9284640F225513A4600F060
:100D30007FF9204641463246FFF726FB41F6B203D3
:100D4000C2F200031E7007B0BDE8F08330B44FF468
:100D50008053C4F202035B6803F00C03042B09D038
:100D6000082B0DD0002B55D14FF49053C0F27A03CD
:100D7000036054E047F64003C0F27D1303604EE089
:100D80004FF48053C4F2020359685A6802F4803267
:100D9000C1F383430D2B14BF023306233AB94FF43A
:100DA0001062C0F23D0202FB03F3036037E04FF430
:100DB0008052C4F20202D16AD26A02F00F0202F13A
:100DC000010211F4803F09D147F64001C0F27D11C4
:100DD000B1FBF2F202FB03F3036020E04FF4805119
:100DE000C4F20201CD6ACC6AC5F3031505F1010511
:100DF00047F64001C0F27D11B1FBF5F1C4F30324C5
:100E000004F1020404FB01F1B1FBF2F202FB03F373
:100E1000036004E04FF49053C0F27A0303604FF490
:100E20008052C4F202025168C1F3031140F2000380
:100E3000C2F20003595C046824FA01F1416054686D
:100E4000C4F302241C5D21FA04F484605468C4F3E2
:100E5000C2241C5D21FA04F1C1605268C2F38132E0
:100E60009B181B7CB1FBF3F1016130BC704700BFE4
:100E700039B14FF48053C4F202039A691043986168
:100E800070474FF48053C4F202039A6922EA0000CB
:100E90009861704739B14FF48053C4F20203DA69A4
:100EA0001043D86170474FF48053C4F20203DA69EB
:100EB00022EA0000D861704708B5124B124A9A42E4
:100EC00011D241F2D072C0F6000240F20003C2F229
:100ED000000340F21400C2F2000052F8041B43F871
:100EE000041B8342F9D3094809494FF000028842A4
:100EF000B8BF40F8042BFADBFFF72CF9FFF784FCAE
:100F000008BD00BF140000200000002014000020D5
:100F1000A45A0020FEE700BF30B587B004460D4656
:100F2000038A23F440534FEA03434FEA1343CA882A
:100F300013430382838923F4B05323F00C034FEA55
:100F400003434FEA13430989AA880A4369890A437C
:100F500092B213438381838A23F440734FEA03439D
:100F60004FEA1343AA891343838201A8FFF7EEFED9
:100F70004FF46053C4F201039C420CBF049A039ADD
:100F8000A3891BB2002B09DA02EB820202EB820278
:100F90002B684FEA4303B2FBF3F208E002EB820254
:100FA00002EB820229684FEA8101B2FBF1F248F2BA
:100FB0001F53C5F2EB13A3FB02134FEA53134FEA7F
:100FC00003154FF0640003FB1023A08900B2002832
:100FD0000DDA4FEAC30303F1320348F21F51C5F2A1
:100FE000EB11A1FB0321C1F3421129430CE04FEAAD
:100FF000031303F1320348F21F51C5F2EB11A1FBB9
:101000000321C1F34311294389B2218107B030BDC7
:1010100029B183899BB243F400538381704783894C
:1010200023F400534FEA03434FEA1343838170478D
:1010300010B4C1F3421301F01F014FF0010404FA90
:1010400001F1A34202D100F10C0003E0022B0CBF1E
:10105000103014301AB103681943016003E00368CB
:1010600023EA0101016010BC704700BF4FEAC15183
:101070004FEAD1518180704780884FEAC0504FEAD3
:10108000D05070474FEA11214FF0010303FA01F3EA
:101090006FEA03039BB20380704700BF70B4D9B1FD
:1010A00005464FF6FF704FF008064AF20104CFF6EE
:1010B000FF7415F8013B5840334600F001024FEA37
:1010C00050000AB1604080B203F1FF33DBB2002B65
:1010D000F3D10139EDD101E04FF6FF7070BC7047DC
:1010E0002DE9F04786B006464FF480204FF001010D
:1010F000FFF7D0FE4FF027038DF800304FF00503C7
:101100008DF801308DF802304FF001078DF8037033
:10111000684600F013FB4FF48068ADF804804FF090
:1011200018038DF807304FF003038DF806304FF4A5
:101130004064C4F20104204601A9FFF7C5F84FF44A
:101140000079ADF804904FF010038DF807304FF49C
:101150008055C4F20105284601A9FFF7B5F84FF400
:101160000063ADF804304FF004038DF807302046DB
:101170000DEB0301FFF7A8F802964FF48053ADF88A
:101180000C304FF00006B246ADF80E60ADF810809E
:10119000ADF814604FF00C03ADF812304FF49044EA
:1011A000C4F20004204602A9FFF7B6FE20463946E5
:1011B000FFF72EFF204640F225513A46FFF738FF51
:1011C000204640F226613A46FFF732FF284649465C
:1011D0003246FFF7D9F841F6A843C2F200031E7069
:1011E00006B0BDE8F08700BF10B54FF49043C4F2DD
:1011F00000031B8813F0200F00F08A804FF490400A
:10120000C4F20000FFF738FF41F6A843C2F2000322
:101210001B78042B40F0F08045F69423C2F20003C3
:101220001B68022B0DD141F6B403C2F200035B78B8
:10123000042B06D145F69423C2F200034FF00302BB
:101240001A60C0B210F0D00F17D145F69423C2F245
:1012500000031B68022B10D145F69C23C2F2000349
:101260001B681A8842F004021A8045F69423C2F2E1
:1012700000031A6802F103021A6045F69423C2F2D1
:1012800000031B68072B30D141F6A443C2F20003D0
:101290001B68187041F6B404C2F2000420464FF0F7
:1012A0000601FFF7FBFEE279C0F30F239A420BD150
:1012B000A379C0B2834207D141F69C43C2F2000336
:1012C0001B6853B1984708E045F69C23C2F200031F
:1012D0001B681A8842F008021A8041F6A843C2F23D
:1012E00000034FF000021A7010BD41F6A443C2F291
:1012F00000031A6810701A6802F101021A6045F6BC
:101300009423C2F200031A6802F101021A6010BDB0
:101310004FF49043C4F200031B8813F0800F30D0C9
:1013200045F69423C2F200031B68002B1FDD4FF427
:101330009040C4F2000041F6A444C2F200042368C5
:101340001978FFF793FE45F6A023C2F20003226846
:1013500012F8010B197841181970226045F6942390
:10136000C2F200031A6802F1FF321A6010BD4FF496
:101370009040C4F2000040F227714FF00002FFF7E6
:1013800057FE4FF49043C4F200031B8813F0400F44
:1013900032D04FF49040C4F2000040F22661FFF7D3
:1013A00071FE41F6A843C2F200031B7803F1FF333C
:1013B000DBB2012B20D84FF48050C4F201004FF46F
:1013C00000714FF00002FEF7DFFF41F6A843C2F2C2
:1013D00000034FF004021A7045F69423C2F2000392
:1013E0004FF000021A6041F6A443C2F2000341F636
:1013F000B402C2F200021A6010BD00BF2DE9F04134
:101400000746884615461E4641F6A843C2F2000329
:101410001B787BB145F69C23C2F200031B681A8837
:1014200042F010021A8041F6A843C2F200034FF0C6
:1014300000021A7041F69C43C2F20003079A1A6038
:1014400045F69C23C2F20003069A1A6041F6AC43AB
:10145000C2F200034FF002021A604FF4FA7303F174
:10146000FF339BB2002BFAD14FF48050C4F201003D
:101470004FF400714FF00102FEF786FF41F6B4040D
:10148000C2F20004277084F801804FEA1523A3708C
:10149000E5704FEA16232371667120464FF006016E
:1014A000FFF7FCFDA0714FEA1020E07141F6A44364
:1014B000C2F200031C6045F69423C2F200034FF011
:1014C00007021A6041F6A843C2F200034FF001027E
:1014D0001A704FF0640303F1FF339BB2002BFAD173
:1014E0004FF49045C4F20005284640F227714FF0B2
:1014F0000102FFF79DFD41F6A444C2F200042368F7
:1015000019782846FFF7B2FD236803F10103236031
:101510004FF00000BDE8F08130B583B045F674238C
:10152000C2F2000318604FF00302827018688178DD
:10153000002900F0018145F68623C2F200031C78E1
:1015400004F10104E4B24AF6AB22CAF6AA22A2FBD5
:1015500004524FEA920202EB4202A4EB4202D2B2E0
:101560001A70EAB941F6AA43C2F200031A8802F1DE
:10157000010292B21A8011F0800F1CBF7F2383708A
:1015800041F6AA43C2F2000345F67421C2F20001FB
:101590000968897892FBF1F001FB10221A8007E0BC
:1015A000052A00F2C980DFE802F00328486888A80D
:1015B00045F67423C2F200031B681A88142A28BF58
:1015C00014224FEA024248F21F53C5F2EB1383FB89
:1015D00002534FEAE272C2EB63139BB245F67822E4
:1015E000C2F2000200924FF0000001904FF006019D
:1015F0004DF20102FFF702FF9EE041F6AA43C2F25C
:1016000000031A8802F10100C0B245F67423C2F249
:101610000003C2EBC2021B6803EB420202F10302A9
:1016200000924FF0000301934FF004014DF21002BD
:1016300040F20113FFF7E2FE7EE041F6AA43C2F258
:1016400000031A8802F10100C0B245F67423C2F209
:101650000003C2EBC2021B6803EB420202F1030269
:1016600000924FF0000301934FF004014DF211027C
:1016700040F20113FFF7C2FE5EE041F6AA43C2F258
:1016800000031A8802F10100C0B245F67423C2F2C9
:101690000003C2EBC2021B6803EB420202F1030229
:1016A00000924FF0000301934FF004014DF2160237
:1016B00040F20113FFF7A2FE3EE041F6AA43C2F258
:1016C00000031A8802F10100C0B245F67423C2F289
:1016D0000003C2EBC2021B6803EB420202F10302E9
:1016E00000924FF0000301934FF004014DF21A02F3
:1016F00040F20113FFF782FE1EE041F6AA43C2F258
:1017000000031A8802F10100C0B245F67423C2F248
:101710000003C2EBC2021B6803EB420202F10302A8
:1017200000924FF0000301934FF004014DF22102AB
:1017300040F20113FFF762FE03B030BD10B4C3786E
:101740005BB34FF46D43CEF20003DB686FEA030333
:10175000C3F30223C3F10402417801FA02F24FF00D
:101760000F0121FA03F184782140114302784FEAF6
:101770000111C9B24FF46143CEF200039A1882F806
:10178000001302784FEA521102F01F024FF00100DD
:1017900000FA02F243F8212010E003784FEA5312D6
:1017A00003F01F034FF0010101FA03F14FF461430D
:1017B000CEF2000302F1200243F8221010BC704761
:1017C0004FF44053C4F200034AF6AA221A6070474D
:1017D00000000000010203040102030406070809D7
:0417E00002040608F1
:0400000508000000EF
:00000001FF
